:100000000C9446000C945D000C945D000C945D0013
:100010000C945D000C945D000C945D000C945D00EC
:100020000C945D000C945D000C945D000C945D00DC
:100030000C945D000C945D000C945D000C945D00CC
:100040000C945D000C945D000C945D000C945D00BC
:100050000C945D000C945D000C945D000C945D00AC
:100060000C945D000C945D000C945D000C945D009C
:100070000C945D000C945D000C945D000C945D008C
:100080000C945D000C945D000C945D0011241FBE67
:10009000CFEFD0E4DEBFCDBF11E0A0E0B1E0E2E9F8
:1000A000F3E000E00BBF02C007900D92AE30B10745
:1000B000D9F70E9499000C94C7010C940000CF93CB
:1000C000DF9300D01F92CDB7DEB789837B836A832D
:1000D00089818A3031F48A819B81BC018DE00E9444
:1000E0005F0080EC90E0FC018081882F90E08072BE
:1000F0009927892BB1F386EC90E02981FC012083BC
:1001000080E090E00F900F900F90DF91CF910895D5
:10011000CF93DF93CDB7DEB78AE790E02AE730E0F0
:10012000F9012081206EFC0120830000DF91CF9136
:100130000895CF93DF93CDB7DEB728970FB6F89425
:10014000DEBF0FBECDBF81E290E0FC01108282E2F3
:1001500090E02FEFFC01208384E290E02FEFFC0180
:10016000208385E290E0FC0110828AE290E02FEF8C
:10017000FC0120838BE290E0FC0110820E94880049
:1001800019821A8280EC90E09C838B838B819C8106
:100190009695879596958795969587959E838D8359
:1001A00088E790E0FC018081918198878F838F811F
:1001B00089838F819885892F99278A838F81988554
:1001C000892B69F02F8138858D819E812817390709
:1001D00030F485E290E021E0FC012083D7C08D81DE
:1001E0009E819C01220F331F8F8198858217930770
:1001F00068F42F8138858D819E812817390730F06A
:1002000085E290E023E0FC012083C0C02D813E8187
:10021000C901880F991F280F391F8F819885821770
:10022000930780F48D819E819C01220F331F8F8163
:1002300098858217930730F085E290E027E0FC0173
:100240002083A4C08D819E819C01220F331F220F29
:10025000331F8F8198858217930790F42D813E81FB
:10026000C901880F991F280F391F8F819885821720
:10027000930730F085E290E02FE0FC01208386C0F8
:100280002D813E81C901880F991F880F991F280F62
:10029000391F8F8198858217930790F48D819E81F5
:1002A0009C01220F331F220F331F8F8198858217E5
:1002B000930730F085E290E02FE1FC01208366C0D7
:1002C0002D813E81C901880F991F820F931F880FCE
:1002D000991F9C018F81988582179307A0F42D8127
:1002E0003E81C901880F991F880F991F280F391F58
:1002F0008F8198858217930730F085E290E02FE395
:10030000FC01208343C02D813E81C901880F991FC4
:10031000880F991F880F991FAC01421B530B9A013C
:100320008F81988582179307A8F42D813E81C9019A
:10033000880F991F820F931F880F991F9C018F812F
:1003400098858217930730F085E290E02FE7FC0153
:1003500020831CC02D813E81C901880F991F880F01
:10036000991F880F991FAC01421B530B9A018F8173
:1003700098858217930730F085E290E02FEFFC011B
:1003800020830ECF85E290E0FC01108209CFF89423
:02039000FFCF9D
:0E03920000000002000000005F0000000000FC
:00000001FF
